:02000000732A61
:10000600831603139818092800000328660883122C
:040016009900080045
:10001A00831203132108930083161418162800006C
:0A002A00112883121308F0000800EB
:1000340083120313F8010830FC00700DF80D7408E6
:10004400F80203182728F8070310F00DFC0B1F28EB
:020054000800A2
:1000560083160313E3010330630203183928630888
:100066006207840020308000E30A2E2863086207B6
:1000760084008001E30363086207E4000A30831208
:10008600F400831661088312F0001A207808F00045
:100096003030F007831664088400831270088000ED
:1000A6000A30F400831661088312F0001A207008E3
:1000B6008316E10083127008003A031D6328662840
:0800C6008316E3033E28080045
:1000CE0083160313E301610884000008E20062084E
:1000DE00003A03197D286208E60003208316E30A1E
:0E00EE006308610784000008E2006E28080025
:1000FC0083160313E301E401E50180306104E3009E
:10010C006208E400831206108316E50102306502D2
:10011C0003189A286508E33E840000088312A100A6
:0E012C000D208316E50A8C28831206140800A5
:10013A00831203132008930083161418A6280000BC
:0A014A00A12883121308F00008003A
:100154008312031307110230FC004B30FD00FD0B2A
:10016400B128FC0BB12807150D30FC00FB30FD0055
:0E017400FD0BBA28FC0BBA28000000000800A2
:10018200013083160313E1008030E2007E20080074
:1001920083160313DC01DD018312061083165B084C
:1001A2008312A0009D20FF30A0009D2070088316BE
:1001B200DC00DD018312061483165C088312F00052
:0201C200080033
:0E01C4008312031369088A006808820008008D
:1001D200013083160313E1008130E2007E20080023
:1001E20083160313DC01DD01DE01DF01E0015B08A0
:1001F200E100DC30E2002B20DC3083160313E10047
:0A02020067202230E10067200800A9
:10020C009D3083120313EA000030EB002030EC0029
:10021C0000300D30ED000030EE002130EF000030EA
:10022C0083168712871107168312940140308316A8
:08023C009400831294160800DF
:100244008030831603135C068312F0008030700242
:10025400031D2F29023083165B02031837298316E6
:100264000230DB000030DC004B2980308312F000C8
:10027400803083165C0683127002031D44298316A2
:100284005B08113C03184B2983161130DB00003046
:10029400DC0083160930E10002305B028312F000B7
:0C02A400803070048316E2007E20080009
:1002B0008316031356088312F2007208F000F20A44
:1002C000700884000008031966295D298316560802
:1002D00083127202F0000130F002F101031CF103FD
:0202E000080014
:1002E20083160313D901DA01E9200D308316E100E8
:1002F200E2017E208316D901DA0180305A06831288
:10030200F00080308316580683127002031D8C2978
:1003120083165708590203189B298316E1015608D0
:1003220084000008E2007E208316D60AD90A031947
:10033200DA0A7E2983162230E1005708E2007E2085
:1003420001308316E1008330E2007E2012308316F2
:10035200DB00C92008307005F1007108003A031D66
:10036200C8298230FC00DD30FD00FD0BB629FC0BF4
:10037200B6290000000043308316E10067201230E6
:10038200DB00C92070088316DB00F120A729831641
:100392003E30E10067201230DB00C920700883166E
:1003A200DB00F1201230E1000830E2007E2008007C
:1003B200063083160313E1006C30E2007E20073022
:1003C2008316E1004030E2007E2008308316E1000F
:0603D200E2017E2008009C
:1003D80083160313D601062183160610071183120C
:1003E800061407150D30FC00FB30FD00FD0BFA2943
:1003F800FC0BFA2900000000AA208316D6016430FD
:10040800560203181C2A4230DB00C9207008123A31
:10041800031D0F2A1C2A0330FC009730FD00FD0B3A
:10042800132AFC0B132A000000008316D60A032A9D
:1004380083165608633A031D242A8312F001492AB9
:10044800C1200F308316E100E2017E200E308316B2
:10045800E100E2017E200C308316DB00C920033066
:1004680070048316E2000C30E1007E2026308316EB
:10047800E1000430E2007E2011308316DB000030FA
:0C048800DC002221E9200130F000080017
:1004940083160313981690308312980083168717D7
:1004A400071383128C1E592A1A08F000532A0800D5
:1004B400E2208A110A128000840AE80A0319E90A70
:0804C400F003031D5A2A080091
:1004CC001E3083160313DB00C9200430700483161E
:0A04DC00E2001E30E1007E2008005F
:1004E6003823483083160313B8006F30B9006C30D8
:1004F600BA006130BB002030BC006D30BD007530E5
:10050600BE006E30BF006430C0006F30C100C20153
:10051600C301C401C501C601C701C801C901CA0199
:10052600CB01CC01CD01CE01CF01D001D101D20149
:10053600D301D401D5011930990018154A22EC21AE
:1005460070080319CE2A25308316E1006720D921C9
:10055600662283120630FB001330FC00AD30FD002E
:10056600FD0BB32AFC0BB32AFB0BB32A00000000D9
:10057600B8308316D600582170088316D700831228
:1005860071088316D800B830D60071215130831611
:10059600E1006720AC2A8316A030E1006720A22A7A
:0205A600D32A56
:1006700022308400463083120313F000D930E800A2
:100680000230E9005A22A030840018300313F00031
:0C0690001F30E8000330E9005A22080087
:0605B2000D340A34003490
:1005B8004C346F3472346134203449346E346934C5
:1005C8006334693461346C3469347A346134643442
:1005D8006F3420345B344F344B345D340D340A347B
:0205E8000034DD
:0A05EA004F344B340D340A34003452
:1005F40045346E347634693461346E3464346F3423
:0C0604002E342E342E340D340A34003411
:100610005034613471347534653474346534203445
:1006200065346E3476346934613464346F34203424
:0E0630005B344F344B345D340D340A340034E7
:10063E004E346F34203449346E3469346334693443
:10064E0061346C3469347A34613464346F342034F8
:10065E005B344534523452345D340D340A34003434
:02400E000A2F77
:00000001FF
